S00D00005465736C612E737265631E
S113000013C100001BC1000019C1000017C100008A
S113001015C1000013C1000011C100000FC1000090
S11300200DC100000BC1000009C1000007C10000A0
S113003005C1000003C1000001C10000FFC00000B1
S1130040FDC00000FBC00000F9C00000F7C00000C4
S1130050F5C00000F3C00000F1C00000EFC00000D4
S1130060EDC00000EBC00000E9C00000E7C00000E4
S1130070E5C00000E3C00000E1C00000DFC00000F4
S1130080DDC00000DBC00000D9C00000D7C0000004
S1130090D5C00000D3C00000D1C00000CFC0000014
S11300A0CDC00000CBC00000C9C00000C7C0000024
S11300B0C5C00000C3C00000C1C00000BFC0000034
S11300C0BDC00000BBC00000B9C00000B7C0000044
S11300D0B5C00000B3C00000B1C00000AFC0000054
S11300E0ADC000002A013701440151015E016B01DA
S11300F0780189019A01AB01BC01C901D601E30170
S1130100F001010212022302340241024E025B0298
S11301106802750282028F029C02A902B602C3021F
S1130120D002DD02EA02F702040311031E032B03CB
S11301303803450352035F036C037D038E039F035F
S1130140B003C103D203E303F303FF030B04170457
S11301502E043B044804550462046F047C048D049B
S11301609E04AF04C004CD04DA04E704F4040505D6
S1130170160527053805450552055F056C05790503
S113018086059305A005AD05BA05C705D405E105A7
S1130190EE05FB050806150622062F063C06490651
S11301A056066306700681069206A306B406C506C3
S11301B0D606E706F70603070F071B0732073507BE
S11301C038073B073E074107440748074C075007D9
S11301D0540757075A075D076007640768076C07E9
S11301E070077307760779077C077F0782078507FF
S11301F088078B078E079107940797079A079D072F
S1130200A007A307A607A907AC07AF07B207B5075E
S1130210B807BC07C007C307C707CB07CF07D30777
S1130220D707DA07DD07E00711241FBECFEFD1E2BD
S1130230DEBFCDBF00E00CBF48D754C7E1CE90E08D
S11302408633910508F0FEC2FC018827EE58FF4F63
S11302508F4F40C7611104C08DB18E7F8DB9089551
S1130260613009F0EFC28DB181608DB908956111DB
S113027004C08DB18D7F8DB90895613009F0E2C25B
S11302808DB182608DB90895611104C08DB18F7EE6
S11302908DB90895613009F0D5C28DB180618DB9F1
S11302A00895611104C08DB18F7D8DB908956130B9
S11302B009F0C8C28DB180628DB90895611104C07E
S11302C083B38F7D83BB0895613009F0BBC283B3D0
S11302D0806283BB0895611104C08DB1877F8DB99D
S11302E00895613009F0AEC28DB188608DB908956A
S11302F0611106C0E1E0F1E08081877F8083089589
S1130300613009F09FC2E1E0F1E080818860808380
S11303100895611106C0E1E0F1E080818F7E808361
S11303200895613009F08EC2E1E0F1E080818061DE
S113033080830895611106C0E1E0F1E080818F7D42
S113034080830895613009F07DC2E1E0F1E08081AD
S1130350806280830895611106C0E1E0F1E080814C
S11303608F7B80830895613009F06CC2E1E0F1E095
S11303708081806480830895611104C084B18F7E7C
S113038084B90895613009F05DC284B1806184B993
S11303900895611104C084B18F7D84B908956130DA
S11303A009F050C284B1806284B90895611104C017
S11303B084B18F7B84B90895613009F043C284B15C
S11303C0806484B90895611104C084B18F7784B9BD
S11303D00895613009F036C284B1806884B9089503
S11303E0611106C0E4E0F1E080818D7F808308958F
S11303F0613009F027C2E4E0F1E08081826080830B
S11304000895611106C0E4E0F1E080818E7F80836D
S11304100895613009F016C2E4E0F1E08081816062
S113042080830895611106C0E1E0F1E080818D7F51
S113043080830895613009F005C2E1E0F1E0808134
S1130440826080830895611106C0E1E0F1E080815B
S11304508E7F80830895613009F0F4C1E1E0F1E01A
S11304608081816080830895611104C08AB1877F8F
S11304708AB90895613009F0E5C18AB188608AB902
S11304800895611104C08AB18B7F8AB908956130DF
S113049009F0D8C18AB184608AB90895611104C091
S11304A08AB18D7F8AB90895613009F0CBC18AB1D0
S11304B082608AB90895611104C08AB18E7F8AB9B5
S11304C00895613009F0BEC18AB181608AB9089586
S11304D0611104C081B18E7F81B90895613009F042
S11304E0B1C181B1816081B90895611104C081B144
S11304F08D7F81B90895613009F0A4C181B1826012
S113050081B90895611104C081B18B7F81B90895C7
S1130510613009F097C181B1846081B90895611196
S113052004C081B1877F81B90895613009F08AC11F
S113053081B1886081B90895611104C081B18F7E51
S113054081B90895613009F07DC181B1806181B9BB
S11305500895611104C081B18F7D81B9089561301E
S113056009F070C181B1806281B90895611104C03C
S113057081B18F7B81B90895613009F063C181B184
S1130580806481B90895611104C081B18F7781B904
S11305900895613009F056C181B1806881B9089528
S11305A0611104C087B18F7787B90895613009F06C
S11305B049C187B1806887B90895611104C087B1C2
S11305C08F7B87B90895613009F03CC187B180649D
S11305D087B90895611104C087B18F7D87B90895E3
S11305E0613009F02FC187B1806287B90895611124
S11305F004C087B18F7E87B90895613009F022C1A4
S113060087B1806187B90895611104C087B1877F7C
S113061087B90895613009F015C187B1886087B939
S11306200895611104C087B18B7F87B90895613043
S113063009F008C187B1846087B90895611104C0C5
S113064087B18D7F87B90895613009F0FBC087B108
S1130650826087B90895611104C087B18E7F87B91C
S11306600895613009F0EEC087B1816087B90895BB
S1130670611104C08AB18F778AB90895613009F095
S1130680E1C08AB180688AB90895611104C083B356
S11306908B7F83BB0895613009F0D4C083B3846039
S11306A083BB0895611104C083B38D7F83BB089518
S11306B0613009F0C7C083B3826083BB08956111C0
S11306C004C083B38E7F83BB0895613009F0BAC040
S11306D083B3816083BB0895611106C0EAE0F1E051
S11306E080818F7780830895613009F0ABC0EAE0A0
S11306F0F1E08081806880830895611106C0EAE09A
S1130700F1E080818F7B80830895613009F09AC085
S1130710EAE0F1E08081806480830895611106C07D
S1130720EAE0F1E080818F7D80830895613009F0F3
S113073089C0EAE0F1E080818062808308956111DC
S113074006C0EAE0F1E080818F7E80830895613005
S113075009F078C0EAE0F1E0808180618083089547
S1130760611106C0EAE0F1E08081877F808308950B
S1130770613009F067C0EAE0F1E08081886080833D
S11307800895611106C0EAE0F1E080818B7F8083E7
S11307900895613009F056C0EAE0F1E08081846098
S11307A080830895611106C0EAE0F1E080818D7FC5
S11307B080830895613009F045C0EAE0F1E080816A
S11307C0826080830895611106C0EAE0F1E08081CF
S11307D08E7F808308956130A9F5EAE0F1E080819D
S11307E0816080830895611104C084B1877F84B9D6
S11307F00895613039F584B1886084B90895611130
S113080004C084B18B7F84B908956130D9F484B174
S1130810846084B90895611104C084B18D7F84B962
S11308200895613079F484B1826084B908956111C6
S113083004C084B18E7F84B90895613019F484B101
S1130840816084B9089590E08633910508F0FEC272
S1130850FC018827E855FF4F8F4F3CC4611104C049
S11308608EB18E7F8EB90895613009F0EFC28EB1DA
S113087081608EB90895611104C08EB18D7F8EB9E7
S11308800895613009F0E2C28EB182608EB9089594
S1130890611104C08EB18F7E8EB90895613009F064
S11308A0D5C28EB180618EB90895611104C08EB134
S11308B08F7D8EB90895613009F0C8C28EB180620F
S11308C08EB90895611104C084B38F7D84BB0895EB
S11308D0613009F0BBC284B3806284BB08956111A6
S11308E004C08EB1877F8EB90895613009F0AEC21D
S11308F08EB188608EB90895611106C0E2E0F1E01E
S11309008081877F80830895613009F09FC2E2E08F
S1130910F1E08081886080830895611106C0E2E07F
S1130920F1E080818F7E80830895613009F08EC26A
S1130930E2E0F1E08081806180830895611106C066
S1130940E2E0F1E080818F7D80830895613009F0D9
S11309507DC2E2E0F1E080818062808308956111CC
S113096006C0E2E0F1E080818F7B808308956130EE
S113097009F06CC2E2E0F1E0808180648083089534
S1130980611104C085B18F7E85B90895613009F085
S11309905DC285B1806185B90895611104C085B1D6
S11309A08F7D85B90895613009F050C285B18062A8
S11309B085B90895611104C085B18F7B85B9089507
S11309C0613009F043C285B1806485B9089561112D
S11309D004C085B18F7785B90895613009F036C2B6
S11309E085B1806885B90895611106C0E5E0F1E03C
S11309F080818D7F80830895613009F027C2E5E00E
S1130A00F1E08081826080830895611106C0E5E091
S1130A10F1E080818E7F80830895613009F016C2F1
S1130A20E5E0F1E08081816080830895611106C072
S1130A30E2E0F1E080818D7F80830895613009F0E8
S1130A4005C2E2E0F1E08081826080830895611153
S1130A5006C0E2E0F1E080818E7F808308956130FA
S1130A6009F0F4C1E2E0F1E08081816080830895BF
S1130A70611104C08BB1877F8BB90895613009F08F
S1130A80E5C18BB188608BB90895611104C08BB145
S1130A908B7F8BB90895613009F0D8C18BB1846024
S1130AA08BB90895611104C08BB18D7F8BB9089502
S1130AB0613009F0CBC18BB182608BB908956111AB
S1130AC004C08BB18E7F8BB90895613009F0BEC12B
S1130AD08BB181608BB90895611104C082B18E7F9E
S1130AE082B90895613009F0B1C182B1816082B9DF
S1130AF00895611104C082B18D7F82B90895613077
S1130B0009F0A4C182B1826082B90895611104C060
S1130B1082B18B7F82B90895613009F097C182B1A7
S1130B20846082B90895611104C082B1877F82B95B
S1130B300895613009F08AC182B1886082B908954C
S1130B40611104C082B18F7E82B90895613009F0C9
S1130B507DC182B1806182B90895611104C082B1FE
S1130B608F7D82B90895613009F070C182B18062CD
S1130B7082B90895611104C082B18F7B82B908954E
S1130B80613009F063C182B1806482B90895611152
S1130B9004C082B18F7782B90895613009F056C1DB
S1130BA082B1806882B90895611104C088B18F77D9
S1130BB088B90895613009F049C188B1806888B95D
S1130BC00895611104C088B18F7B88B9089561309C
S1130BD009F03CC188B1806488B90895611104C0EA
S1130BE088B18F7D88B90895613009F02FC188B12B
S1130BF0806288B90895611104C088B18F7E88B974
S1130C000895613009F022C188B1806188B90895DE
S1130C10611104C088B1877F88B90895613009F0F3
S1130C2015C188B1886088B90895611104C088B17C
S1130C308B7F88B90895613009F008C188B1846058
S1130C4088B90895611104C088B18D7F88B9089569
S1130C50613009F0FBC088B1826088B908956111E0
S1130C6004C088B18E7F88B90895613009F0EEC060
S1130C7088B1816088B90895611104C08BB18F7700
S1130C808BB90895613009F0E1C08BB180688BB9EC
S1130C900895611104C084B38B7F84BB08956130CF
S1130CA009F0D4C084B3846084BB0895611104C086
S1130CB084B38D7F84BB0895613009F0C7C084B3C9
S1130CC0826084BB0895611104C084B38E7F84BBA9
S1130CD00895613009F0BAC084B3816084BB08957B
S1130CE0611106C0EBE0F1E080818F778083089585
S1130CF0613009F0ABC0EBE0F1E080818068808373
S1130D000895611106C0EBE0F1E080818F7B808360
S1130D100895613009F09AC0EBE0F1E080818064CD
S1130D2080830895611106C0EBE0F1E080818F7D3E
S1130D3080830895613009F089C0EBE0F1E080819F
S1130D40806280830895611106C0EBE0F1E0808148
S1130D508F7E80830895613009F078C0EBE0F1E084
S1130D608081806180830895611106C0EBE0F1E029
S1130D708081877F80830895613009F067C0EBE04C
S1130D80F1E08081886080830895611106C0EBE002
S1130D90F1E080818B7F80830895613009F056C033
S1130DA0EBE0F1E08081846080830895611106C0E6
S1130DB0EBE0F1E080818D7F80830895613009F05C
S1130DC045C0EBE0F1E08081826080830895611189
S1130DD006C0EBE0F1E080818E7F8083089561306E
S1130DE0A9F5EBE0F1E080818160808308956111D1
S1130DF004C085B1877F85B90895613039F585B11F
S1130E00886085B90895611104C085B18B7F85B967
S1130E1008956130D9F485B1846085B9089561116C
S1130E2004C085B18D7F85B90895613079F485B1A9
S1130E30826085B90895611104C085B18E7F85B93A
S1130E400895613019F485B1816085B9089590E001
S1130E508633910508F0B7C0FC018827E252FF4FA2
S1130E608F4F38C18CB1817008958CB18270089510
S1130E708CB1807108958CB18072089582B38072B0
S1130E8008958CB188700895809100018870089548
S1130E90809100018071089580910001807208950D
S1130EA0809100018074089583B18071089583B1A5
S1130EB08072089583B18074089583B18078089511
S1130EC080910301827008958091030181700895D7
S1130ED080910001827008958091000181700895CD
S1130EE089B18870089589B18470089589B1827038
S1130EF0089589B18170089580B18170089580B199
S1130F008270089580B18470089580B188700895C6
S1130F1080B18071089580B18072089580B1807429
S1130F20089580B18078089586B18078089586B157
S1130F308074089586B18072089586B18071089591
S1130F4086B18870089586B18470089586B18270E0
S1130F50089586B18170089589B18078089582B327
S1130F608470089582B38270089582B38170089565
S1130F708091090180780895809109018074089511
S1130F808CB18072089580910901807108958091D7
S1130F9009018870089580910901847008958091F1
S1130FA0090182700895809109018170089583B1C7
S1130FB08870089583B18470089583B18270089510
S1130FC083B1817008958FEF0895CF93DF93C62F77
S1130FD0D42F60E034D961E08C2F31D961E08D2FBA
S1130FE02ED961E08C2F2FDC2FEF31EE84E02150DD
S1130FF030408040E1F700C000008C2F28DF9FEFD5
S113100021EE34E0915020403040E1F700C0000070
S1131010882369F061E08D2F16DC8FEF91EE24E0D8
S1131020815090402040E1F700C000000EC08111C3
S11310300CC060E08D2F07DC3FEF81EE94E031506F
S113104080409040E1F700C0000060E08C2FFBDBA3
S11310502FEF31EE84E0215030408040E1F700C0B2
S113106000008C2FF4DE9FEF21EE34E091502040FD
S11310703040E1F700C00000882369F061E08D2F63
S1131080E2DB8FEF91EE24E0815090402040E1F7C5
S113109000C000000EC081110CC060E08D2FD3DBB6
S11310A03FEF81EE94E0315080409040E1F700C082
S11310B000002FEF31EE84E0215030408040E1F712
S11310C000C00000DF91CF91089545E363E082E022
S11310D07CDFFBCFEE0FFF1F881F8BBF0790F691BD
S10B10E0E02D1994F894FFCFF0
S9030000FC
